{
  "contractName": "DocumentVerifier",
  "abi": [
    {
      "anonymous": false,
      "inputs": [
        {
          "indexed": true,
          "internalType": "bytes32",
          "name": "hash",
          "type": "bytes32"
        }
      ],
      "name": "DocumentAdded",
      "type": "event"
    },
    {
      "anonymous": false,
      "inputs": [
        {
          "indexed": true,
          "internalType": "bytes32",
          "name": "hash",
          "type": "bytes32"
        },
        {
          "indexed": false,
          "internalType": "bool",
          "name": "isValid",
          "type": "bool"
        }
      ],
      "name": "DocumentVerified",
      "type": "event"
    },
    {
      "inputs": [
        {
          "internalType": "bytes32",
          "name": "hash",
          "type": "bytes32"
        }
      ],
      "name": "addDocumentHash",
      "outputs": [],
      "stateMutability": "nonpayable",
      "type": "function"
    },
    {
      "inputs": [
        {
          "internalType": "bytes32",
          "name": "hash",
          "type": "bytes32"
        }
      ],
      "name": "verifyDocumentHash",
      "outputs": [
        {
          "internalType": "bool",
          "name": "",
          "type": "bool"
        }
      ],
      "stateMutability": "view",
      "type": "function"
    },
    {
      "inputs": [
        {
          "internalType": "bytes32",
          "name": "hash",
          "type": "bytes32"
        }
      ],
      "name": "getStoredHash",
      "outputs": [
        {
          "internalType": "bool",
          "name": "",
          "type": "bool"
        }
      ],
      "stateMutability": "view",
      "type": "function"
    }
  ],
  "bytecode": "0x608060405234801561001057600080fd5b50610320806100206000396000f3fe608060405234801561001057600080fd5b50600436106100415760003560e01c806311efd0d7146100465780635677afe314610076578063a38a8ba6146100a6575b600080fd5b610060600480360381019061005b919061020a565b6100c2565b60405161006d9190610252565b60405180910390f35b610090600480360381019061008b919061020a565b6100eb565b60405161009d9190610252565b60405180910390f35b6100c060048036038101906100bb919061020a565b610114565b005b600080600083815260200190815260200160002060009054906101000a900460ff169050919050565b600080600083815260200190815260200160002060009054906101000a900460ff169050919050565b60008082815260200190815260200160002060009054906101000a900460ff1615610174576040517f08c379a000000000000000000000000000000000000000000000000000000000815260040161016b906102ca565b60405180910390fd5b600160008083815260200190815260200160002060006101000a81548160ff021916908315150217905550807f2c97cf84ae44288754ce8b52a155b1d049f6f6370219994eaacd5f2f4d5585aa60405160405180910390a250565b600080fd5b6000819050919050565b6101e7816101d4565b81146101f257600080fd5b50565b600081359050610204816101de565b92915050565b6000602082840312156102205761021f6101cf565b5b600061022e848285016101f5565b91505092915050565b60008115159050919050565b61024c81610237565b82525050565b60006020820190506102676000830184610243565b92915050565b600082825260208201905092915050565b7f446f63756d656e74206861736820616c72656164792065786973747300000000600082015250565b60006102b4601c8361026d565b91506102bf8261027e565b602082019050919050565b600060208201905081810360008301526102e3816102a7565b905091905056fea26469706673582212204f6c3c1d4d61a6ef99990f3d19cfacb464f2d6d4e42d75b66f96262a3e2197bc64736f6c634300080d0033",
  "immutableReferences": {},
  "source": "// SPDX-License-Identifier: MIT\npragma solidity >=0.4.22 <0.9.0;\n\ncontract DocumentVerifier {\n    mapping(bytes32 => bool) private _documentHashes;\n\n    event DocumentAdded(bytes32 indexed hash);\n    event DocumentVerified(bytes32 indexed hash, bool isValid);\n\n    function addDocumentHash(bytes32 hash) external {\n        require(!_documentHashes[hash], \"Document hash already exists\");\n        _documentHashes[hash] = true;\n        emit DocumentAdded(hash);\n    }\n\n    function verifyDocumentHash(bytes32 hash) external view returns (bool) {\n        return _documentHashes[hash];\n    }\n\n    function getStoredHash(bytes32 hash) external view returns (bool) {\n        return _documentHashes[hash];\n    }\n}\n",
  "sourcePath": "/home/voldemort/Music/Documents/Project_G29/Truffle/Document validation using Blockchain/contracts/DocumentVerifier.sol",
  "compiler": {
    "name": "solc",
    "version": "0.8.13+commit.abaa5c0e.Emscripten.clang"
  },
  "schemaVersion": "3.4.16",
  "updatedAt": "2024-04-09T07:58:20.541Z",
  "devdoc": {
    "kind": "dev",
    "methods": {},
    "version": 1
  },
  "userdoc": {
    "kind": "user",
    "methods": {},
    "version": 1
  }
}